:020000040800F2
:1000000030050020450100089D1E00084D1800081D
:10001000991E0008C10100083920000800000000F6
:10002000000000000000000000000000C91E0008E1
:10003000C5010008000000009F1E0008CB1E00083C
:100040005F0100085F0100085F0100085F01000810
:100050005F0100085F0100085F0100085F01000800
:100060005F0100085F0100085F0100085F010008F0
:100070005F0100085F0100085F0100085F010008E0
:100080005F0100085F0100085F0100085F010008D0
:100090005F0100085F0100085F0100085F010008C0
:1000A0005F0100085F0100085F0100085F010008B0
:1000B0005F0100085F0100085F0100085F010008A0
:1000C0005F0100085F0100085F0100085F01000890
:1000D0005F0100085F0100085F0100085F01000880
:1000E0005F0100085F0100085F0100085F01000870
:1000F0005F0100085F0100085F0100085F01000860
:100100005F0100085F0100085F0100085F0100084F
:100110005F0100085F0100085F0100085F0100083F
:100120005F0100085F0100085F0100085F0100082F
:10013000DFF80CD000F032F800480047AD2100088D
:10014000300500200648804706480047FEE7FEE7E6
:10015000FEE7FEE7FEE7FEE7FEE7FEE7FEE7FEE777
:10016000391F000831010008D2B201E000F8012B6C
:10017000491EFBD270470022F6E710B513460A4627
:1001800004461946FFF7F0FF204610BD421C10F848
:10019000011B0029FBD1801A70470000064C074D57
:1001A00006E0E06840F0010394E807009847103447
:1001B000AC42F6D3FFF7C0FF08230008282300084D
:1001C00000BFFEE77047000006A001F037FF08E01F
:1001D0004FF48071094800F0C7F94FF47A7000F0CD
:1001E0000FF8F5E77468652050726F6772616D20D3
:1001F0006661696C656420210D0A0000001C0140E5
:1002000070B5044600F0C0F906462546681C10B1DA
:1002100004480078054400BF00F0B6F9801BA842EE
:10022000FAD370BD280000202DE9F84702460023CC
:100230009C467BE14FF0010808FA03F4D1F80080F6
:1002400008EA0400A0427DD1DFF8F4A2D1F80480CE
:10025000A8EB0A09D0453AD014DCB8F1030F50D00E
:1002600009DCB8F1000F31D0B8F1010F1CD0B8F1A2
:10027000020F49D120E0B8F1110F18D0B8F1120FD8
:1002800042D11EE0B9F5881F25D006DCB9F5803FC4
:1002900020D0B9F5801F37D11AE0B9F5001F18D06A
:1002A000B9F5041F30D117E0D1F80CC02DE0D1F81A
:1002B0000C8008F1040C28E0D1F80C8008F1080C3F
:1002C00023E0D1F80C8008F10C0C1EE000BF00BF49
:1002D00000BF00BF00BF00BFD1F80880B8F1000F19
:1002E00002D14FF0040C0BE0D1F80880B8F1010FF7
:1002F00003D14FF0080C146102E04FF0080C546178
:1003000003E04FF0000C00E000BF00BFFF2801D861
:10031000904601E002F104084646FF2802D84FEA61
:10032000830803E0A3F108084FEA88084746D6F897
:1003300000804FF00F0909FA07F928EA09080CFABA
:1003400007F900E07AE048EA0908C6F80080D1F829
:10035000048008F08058B8F1805F6FD100BFDFF8EB
:10036000E481D8F8188048F00108DFF8D891C9F87E
:100370001880C846D8F8188008F00108CDF8008029
:1003800000BF00BF4FEAB9384FEA930958F8295027
:100390004FEA83784FEA18794FF00F0808FA09F806
:1003A00025EA0805DFF8A081424502D14FF0000898
:1003B00024E0DFF89881424502D14FF001081DE0AA
:1003C000DFF88C81424502D14FF0020816E0DFF8D9
:1003D0008481424502D14FF003080FE0DFF87881B5
:1003E000424502D14FF0040808E0DFF87081424531
:1003F00002D14FF0050801E04FF006084FEA83797B
:100400004FEA197908FA09F848EA0505DFF850813A
:100410004FEA930948F82950D1F8048008F480384D
:10042000B8F5803F0BD1DFF83C81D8F8008048EA6E
:100430000008DFF83091C9F800800AE075E0DFF8C5
:100440002481D8F8008028EA0008DFF81891C9F85C
:100450000080D1F8048008F40038B8F5003F0ED1D0
:10046000DFF8008108F10408D8F8008048EA0008A5
:10047000DFF8F09009F10409C9F800800DE0DFF819
:10048000E48008F10408D8F8008028EA0008DFF8C2
:10049000D49009F10409C9F80080D1F8048008F467
:1004A0008018B8F5801F0ED1DFF8B88008F1080871
:1004B000D8F8008048EA0008DFF8A89009F1080998
:1004C000C9F800800DE0DFF89C8008F10808D8F832
:1004D000008028EA0008DFF88C9009F10809C9F8C3
:1004E0000080D1F8048008F40018B8F5001F0ED180
:1004F000DFF8708008F10C08D8F8008048EA00089E
:10050000DFF8609009F10C09C9F800800DE0DFF810
:10051000548008F10C08D8F8008028EA0008DFF8B9
:10052000449009F10C09C9F800805B1CD1F80080E7
:1005300028FA03F8B8F1000F7FF47CAEBDE8F88725
:10054000000011100010024000080140000C0140A2
:10055000001001400014014000180140001C01403F
:10056000080001400004014010B5C26821EA0203FE
:1005700002EA010443EA0443036110BD0AB10161C8
:1005800001E00B04036170470148006870470000F8
:1005900020000020014691F83D00704770B50446E8
:1005A0000CB9012070BD94F83D0028B9002084F8F2
:1005B0003C00204600F01AFC242084F83D0020680E
:1005C000006820F00100216808602068006840F49D
:1005D0000040216808602068006820F4004021681D
:1005E000086000F0CBFD05465C496068884206D88B
:1005F0005B48854201D2012007E0002005E0594810
:10060000854201D2012000E00020012800D1C9E785
:100610005548B5FBF0F62068406820F03F003043B5
:10062000216848604D496068884201D8701C07E025
:100630004FF4967070434FF47A71B0FBF1F0401CA8
:100640002168096A21F03F01084321680862434993
:100650006068884214D8681E61684900B0FBF1F0F8
:10066000401CC0F30B00042801D204203DE0681EAA
:1006700061684900B0FBF1F0401CC0F30B0034E0AE
:10068000A06838B9681E616801EB4101B0FBF1F068
:10069000401C0AE0681E616801EBC10202EB011117
:1006A000B0FBF1F0401C40F48040C0F30B0008B9EF
:1006B00001201AE0A06848B9681E616801EB410199
:1006C000B0FBF1F0401CC0F30B000CE0681E616849
:1006D00001EBC10202EB0111B0FBF1F0401CC0F3D1
:1006E0000B0040F4804040F400402168C9694CF69A
:1006F000FF72914308432168C861D4E907010843A8
:100700002168096821F0C001084321680860D4E924
:10071000031008432168896848F2FF329143084377
:1007200021688860D4E9050108432168C96821F07F
:10073000FF0108432168C8602068006840F001009C
:100740002168086000202064202084F83D000020FB
:10075000206384F83E0000BF24E70000A08601006B
:1007600080841E0000093D0040420F002DE9F84F33
:1007700004460F4690461E46FFF706FF05464FF01B
:10078000010994F83D0020287ED1192301226349F4
:100790002046009501F0CAF910B10220BDE8F88F9B
:1007A00000BF94F83C00012801D10220F6E70120A7
:1007B00084F83C0000BF2068006800F0010028B900
:1007C0002068006840F00100216808602068006827
:1007D00020F4006021680860242084F83D00002097
:1007E00020644F48E06200BF2068006840F48070D9
:1007F00021680860334600224FF001112046009521
:1008000001F094F958B12068006800F48070B0F5E8
:10081000807F02D14FF4007020640320BEE707F010
:10082000FE0021680861FFF7AFFE054620684069B9
:10083000C0F3400A20684069C0F3802B10E0FFF746
:10084000A3FE401BB04200D816B9A02084F83D009A
:1008500020684069C0F3400A20684069C0F3802BDB
:1008600094F83D00A02805D0BAF1000F02D1BBF1E9
:10087000000FE4D0202084F83D0020684069C0F3D8
:10088000400028B3206800E045E0006840F40070B4
:100890002168086000BF0020009020684069009037
:1008A00020688069009000BF00BF192301221B4906
:1008B0002046009501F03AF908B101206EE72020AA
:1008C00084F83D0000BF002084F83C0000BF65E7CD
:1008D0002068006840F40070216808606FF4806050
:1008E00021684861192301220C492046009501F036
:1008F0001DF908B1012051E709F10109C145FFF4D3
:1009000073AF202084F83D0000BF002084F83C0035
:1009100000BF012042E7022040E700000200100073
:100920000000FFFF2DE9FE4F04460F469046994612
:10093000DDE90CAB0E9E00200290FFF725FE054678
:1009400094F83D00202872D119230122CA4920467B
:10095000009501F0EBF810B10220BDE8FE8F00BF5A
:1009600094F83C00012801D10220F6E7012084F828
:100970003C0000BF2068006800F0010028B9206832
:10098000006840F00100216808602068006820F4D9
:10099000006021680860222084F83D00402084F82F
:1009A0003E0000202064C4F824A0A4F82AB0608D82
:1009B0002085B248E0624B46424639462046CDE9A2
:1009C000006500F065FF08B10120C6E7208D88B9F9
:1009D00000BF002001902068406901902068806974
:1009E000019000BF00BF2068006840F400702168DB
:1009F00008604BE0208D01281AD12068006820F49F
:100A000080602168086072B600BF002001902068F5
:100A10004069019020688069019000BF00BF206894
:100A2000006840F400702168086062B62EE020E1A2
:100A3000208D022819D12068006840F400602168E8
:100A4000086072B600BF00200190206840690190E4
:100A500020688069019000BF00BF2068006820F412
:100A600080602168086062B610E02068006840F489
:100A700080602168086000BF002001902068406904
:100A8000019020688069019000BF00BFE2E0208DE6
:100A900003287DD8208D012815D12A4631462046CD
:100AA00001F0E9F808B1012057E720680069616AA0
:100AB0000870606A401C6062208D401E2085608D39
:100AC000401E6085C6E0208D02282CD133460022CE
:100AD0006B492046009501F029F808B101203CE758
:100AE00072B62068006840F40070216808602068D1
:100AF0000069616A0870606A401C6062208D401E57
:100B00002085608D401E608562B620680069616A3C
:100B10000870606A401C6062208D401E2085608DD8
:100B2000401E608596E033460022554920460095D8
:100B300000F0FCFF08B101200FE72068006820F4F6
:100B400080602168086072B620680069616A087078
:100B5000606A401C6062208D401E2085608D401EB2
:100B60006085484800681921B0FBF1F04FF47A71B4
:100B7000B0FBF1F0C0EBC00000EB8000029000BFC2
:100B80000298401E02900298A8B90020206300E05D
:100B900039E0202084F83D00002084F83E00206CDD
:100BA00040F02000206462B600BF002084F83C00C2
:100BB00000BF0120D1E620684069C0F38000002812
:100BC000DED02068006840F400702168086020686A
:100BD0000069616A0870606A401C6062208D401E76
:100BE0002085608D401E608562B620680069616A5C
:100BF0000870606A401C6062208D401E2085608DF8
:100C0000401E608526E02A463146204601F033F832
:100C100008B10120A1E620680069616A0870606A75
:100C2000401C6062208D401E2085608D401E6085C6
:100C300020684069C0F3800060B120680069616A83
:100C40000870606A401C6062208D401E2085608DA7
:100C5000401E6085208D00287FF419AF202084F885
:100C60003D00002084F83E0000BF84F83C0000BF37
:100C700073E6022071E60000020010000000FFFF92
:100C8000040001002C0000202DE9FC5F04460F4603
:100C900090469946DDE90CAB0E9EFFF775FC0546C4
:100CA00094F83D0020287DD1192301224D4920468A
:100CB000009500F03BFF10B10220BDE8FC9F00BF93
:100CC00094F83C00012801D10220F6E7012084F8C5
:100CD0003C0000BF2068006800F0010028B92068CF
:100CE000006840F00100216808602068006820F476
:100CF000006021680860212084F83D00402084F8CD
:100D00003E0000202064C4F824A0A4F82AB0608D1E
:100D100020853548E0624B46424639462046CDE9BB
:100D2000006500F065FE08B10120C6E731E02A4603
:100D30003146204600F0DFFF50B1206C042805D179
:100D40002068006840F40070216808600120B4E762
:100D5000606A007821680861606A401C6062208DCA
:100D6000401E2085608D401E608520684069C0F36C
:100D7000800070B1208D60B1606A007821680861E0
:100D8000606A401C6062208D401E2085608D401E80
:100D90006085208D0028CAD12A463146204600F0C1
:100DA00097FE00E01CE050B1206C042805D12068BB
:100DB000006840F400702168086001207DE7206829
:100DC000006840F4007021680860202084F83D002D
:100DD000002084F83E0000BF84F83C0000BF6CE7B0
:100DE00002206AE7020010000000FFFF10B586B085
:100DF0000446002002900390049005901549206855
:100E0000884225D100BF1448806940F0080012498B
:100E100088610846806900F00800019000BF00BFAB
:100E2000C0200290122003900320059002A90B48D5
:100E3000FFF7FAF900BF0848C06940F400100649FE
:100E4000C8610846C06900F40010019000BF00BFEF
:100E500006B010BD0054004000100240000C0140DC
:100E6000034800680349097808440149086070474D
:100E7000200000202800002010B50848006840F03D
:100E8000100006490860032000F098F8002000F0E8
:100E900007F800F02BF8002010BD000000200240F1
:100EA00070B504460E4800784FF47A71B1FBF0F04B
:100EB0000C490968B1FBF0F5284600F0FBFB08B1CE
:100EC000012070BD102C07D200222146501E00F0D8
:100ED00037F80548046001E00120F2E70020F0E760
:100EE000280000202C0000202400002008B500BFAE
:100EF0001148806940F001000F4988610846806907
:100F000000F00100009000BF00BF00BF0846C069AC
:100F100040F08050C8610846C06900F080500090E1
:100F200000BF00BF00BF0549486820F0E06000BF77
:100F3000486000BF08BD00000010024000000140F2
:100F40002DE9F05F80460D461646002701F086F831
:100F5000074639462A46334601F00700C0F1070A22
:100F6000BAF1040F02D94FF0040A01E0C0F1070AF8
:100F7000D14600F1040ABAF1070F02D24FF0000A7D
:100F800001E0A0F1030AD4464FF0010A0AFA09FA77
:100F9000AAF1010A0AEA020A0AFA0CFA4FF0010B56
:100FA0000BFA0CFBABF1010B0BEA030B4AEA0B0447
:100FB0002146404601F05AF8BDE8F09F00BF00F01E
:100FC0000702064B19684FF6FF031940044B0B4309
:100FD00043EA0221014B196000BF70470CED00E0AD
:100FE0000000FA0570B504460D460CB9012070BD2D
:100FF0005A48006800F00700A8420ED2574800681F
:1010000020F007002843554908600846006800F0B2
:101010000700A84201D00120E9E7207800F0020093
:1010200002281DD1207800F00400042805D14C4886
:10103000406840F4E0604A494860207800F00800C9
:10104000082805D14648406840F46050444948604B
:101050004348406820F0F000A168084340494860D8
:10106000207800F0010078B36068012806D13C4880
:10107000006800F4003090B90120B8E760680228E9
:1010800006D13748006800F0007040B90120AEE793
:101090003348006800F0020008B90120A7E7304893
:1010A000406820F00300616808432D494860FFF75D
:1010B0006BFA064609E0FFF767FA801B41F28831B8
:1010C000884202D9032092E707E02548406800F0F3
:1010D0000C006168B0EB810FEDD12048006800F092
:1010E0000700A8420ED91D48006820F007002843D9
:1010F0001A4908600846006800F00700A84201D0BD
:10110000012074E7207800F00400042807D1144877
:10111000406820F4E060E1680843114948602078A5
:1011200000F00800082808D10D48406820F46050FD
:10113000216940EAC1000A49486000F03FF80849C7
:101140004968C1F30311074A515CC8400649086069
:1011500006480068FFF7A4FE002048E70020024090
:1011600000100240F02200082C0000202400002083
:1011700001480068704700002C00002000B5FFF710
:10118000F7FF04494968C1F30221034A515CC84092
:1011900000BD0000001002400023000800B5FFF76A
:1011A000E7FF04494968C1F3C221034A515CC840C2
:1011B00000BD00000010024000230008F0B585B01B
:1011C0000FF26C0C9CE8E01001A8A0E8E0101CA550
:1011D0002D68009500210022002300240020194DD5
:1011E000696801F00C05F5B1042D02D0082D19D164
:1011F00001E0154819E001ADC1F38346AC5D01F48F
:10120000803555B10F4D6D68C5F340451DF805207B
:101210000D4D6543B5FBF2F302E00C4D04FB05F305
:10122000184602E000BF084800BF00BF05B0F0BD8F
:1012300002030405060708090A0B0C0D0E0F101017
:10124000010200000010024000127A0000093D0077
:10125000F8B504460CB90120F8BD207800F0010073
:10126000002878D0F848406800F00C0004280CD022
:10127000F548406800F00C00082811D1F248406899
:1012800000F48030B0F5803F0AD1EF48006800F4E8
:10129000003000285FD0606800285CD10120DBE7C7
:1012A00000BF6068B0F5803F06D1E748006840F4B1
:1012B0008030E549086028E0606858B9E248006875
:1012C00020F48030E04908600846006820F480205F
:1012D00008601AE06068B0F5A02F0BD1DA4800680A
:1012E00040F48020D84908600846006840F4803007
:1012F00008600AE0D448006820F48030D2490860D1
:101300000846006820F48020086000BF606888B14B
:10131000FFF73AF9054606E0FFF736F9401B642867
:1013200001D9032098E7C848006800F4003000287D
:10133000F2D010E0FFF728F9054606E0FFF724F9A0
:10134000401B642801D9032086E7BF48006800F4E9
:1013500000300028F2D1207800F00200022857D196
:10136000B948406800F00C0050B1B748406800F040
:101370000C00082818D1B448406800F4803098B9AF
:10138000B148006800F0020020B12069012801D0B6
:10139000012061E7AC48006820F0F800616940EA8C
:1013A000C100A949086033E02069E8B10120A749DC
:1013B0000860FFF7E9F8054606E0FFF7E5F8401B8F
:1013C000022801D9032047E79F48006800F0020087
:1013D0000028F2D09C48006820F0F800616940EADB
:1013E000C1009949086013E0002098490860FFF7A0
:1013F000CBF8054606E0FFF7C7F8401B022801D9E5
:10140000032029E79048006800F002000028F2D18C
:10141000207800F0080008282DD1A069B8B101207B
:101420008B490860FFF7B0F8054606E0FFF7ACF817
:10143000401B022801D903200EE78348406A00F0D0
:1014400002000028F2D0012000F02AFD13E0002065
:101450007F490860FFF798F8054606E0FFF794F823
:10146000401B022801D90320F6E67748406A00F0C5
:1014700002000028F2D1207800F00400042873D183
:1014800000277148C06900F0805070B900BF6E48F5
:10149000C06940F080506C49C8610846C06900F0DE
:1014A0008050009000BF00BF01276A48006800F428
:1014B0008070B0B96748006840F480706549086082
:1014C000FFF762F8054606E0FFF75EF8401B642868
:1014D00001D90320C0E65F48006800F4807000284E
:1014E000F2D000BFE068012806D15748006A40F0FA
:1014F00001005549086227E0E06858B95248006A7F
:1015000020F00100504908620846006A20F00400FB
:10151000086219E0E06805280BD14B48006A40F0EA
:101520000400494908620846006A40F00100086268
:101530000AE04548006A20F0010043490862084675
:10154000006A20F00400086200BFE068A0B1FFF765
:101550001BF8054609E0FFF717F8401B41F28831F8
:10156000884202D9032077E622E03748006A00F07B
:1015700002000028EFD012E0FFF706F8054608E069
:10158000FFF702F8401B41F28831884201D903205D
:1015900062E62D48006A00F002000028F0D1012F19
:1015A00005D12948C06920F080502749C86100BF93
:1015B000E069C8B32448406800F00C00082860D0F7
:1015C000E069022848D1002020490866FEF7DCFFC8
:1015D000054606E0FEF7D8FF401B022801D903208C
:1015E0003AE61948006800F000700028F2D1206A3D
:1015F000B0F5803F07D11448406820F40030A1685E
:10160000084311494860D4E9080108430E49496874
:1016100021F4741108430C49486001200B49086605
:10162000FEF7B2FF054607E03DE0FEF7ADFF401BC9
:10163000022801D903200FE60348006800F000707B
:101640000028F2D02FE000000010024000004242CB
:101650008004424200700040002014490866FEF7F2
:1016600093FF054606E0FEF78FFF401B022801D9D5
:101670000320F1E50E48006800F000700028F2D168
:1016800011E0E069012800D1E6E50948466806F462
:101690008031206A814204D106F47011606A81426F
:1016A00001D00120D8E50020D6E50000000042422C
:1016B0000010024070B504462546681EB0F1807FD8
:1016C00001D301200FE0681E4FF0E02148610F2197
:1016D0004FF0FF3000F0CAFC00204FF0E02188619D
:1016E00007200861002070BD10B504460CB9012028
:1016F00010BDA06900B100E000BF94F8390028B91E
:10170000002084F83800204600F028F8242084F8CF
:1017100039002068C06820F400502168C860204665
:1017200000F00CFC2068006920F4904021680861FA
:101730002068406920F02A00216848612068C0685C
:1017400040F400502168C8600020E063202084F845
:10175000390084F83A000020CAE7000010B586B0CE
:1017600004460020029003900490059033492068BD
:1017700088422FD100BF3248806940F48040304910
:1017800088610846806900F48040019000BF00BF76
:1017900000BF0846806940F00400886108468069FF
:1017A00000F00400019000BF00BF48150290022025
:1017B00003900320059002A92248FEF735FD4FF45F
:1017C0008060029000200390049002A91D48FEF75B
:1017D0002BFD31E01C49206888422DD100BF1848FC
:1017E000C06940F400301649C8610846C06900F479
:1017F0000030019000BF00BF00BF0846806940F084
:10180000040088610846806900F00400019000BF70
:1018100000BF04200290022003900320059002A93B
:101820000848FEF701FD0820029000200390049074
:1018300002A90448FEF7F8FC06B010BD00380140CC
:1018400000100240000801400044004000BFFEE7D5
:10185000014608684069C0F38020B0B16FF4806031
:101860000A68506100200863202081F83D000020B4
:1018700081F83E00086C40F00400086400BF0020BE
:1018800081F83C0000BF012070470020FCE7000009
:101890002DE9F84304460F4615469946DDE90886CA
:1018A0002068006840F48060216808602068006853
:1018B00040F4807021680860434600224FF0011117
:1018C0002046009600F032F960B12068006800F40C
:1018D0008070B0F5807F02D14FF400702064032047
:1018E000BDE8F88307F0FE002168086133464246F0
:1018F0003E49204600F05DF908B10120F0E700BF45
:101900000020009020684069009020688069009065
:1019100000BF00BF32464146204600F0ECF950B10E
:10192000206C042805D12068006840F4007021680C
:1019300008600120D4E7B9F1010F03D1E8B22168B2
:10194000086117E0C5F30720216808613246414667
:10195000204600F0D0F950B1206C042805D1206851
:10196000006840F40070216808600120B8E7E8B220
:101970002168086132464146204600F0BCF950B16A
:10198000206C042805D12068006840F400702168AC
:1019900008600120A4E72068006840F48070216896
:1019A0000860434600224FF001112046009600F0E7
:1019B000BDF858B12068006800F48070B0F5807FF1
:1019C00002D14FF400702064032089E7F8B240F0A0
:1019D000010021680861334642460449204600F070
:1019E000E8F808B101207BE7002079E70200010058
:1019F0002DE9F8430446884615469946DDE908670F
:101A00002068006840F48070216808603346002236
:101A10004FF001112046009700F088F860B120686F
:101A2000006800F48070B0F5807F02D14FF4007040
:101A300020640320BDE8F88308F0FE0021680861F7
:101A40003B4632462149204600F0B3F808B1012058
:101A5000F0E700BF002000902068406900902068F7
:101A60008069009000BF00BF3A463146204600F032
:101A700042F950B1206C042805D12068006840F478
:101A80000070216808600120D4E7B9F1010F03D18B
:101A9000E8B22168086117E0C5F3072021680861F2
:101AA0003A463146204600F026F950B1206C042811
:101AB00005D12068006840F40070216808600120AA
:101AC000B8E7E8B2216808610020B3E7020001002E
:101AD00070B504460D46164620E02046FFF7B8FED6
:101AE00008B1012070BD681CC0B1FEF74DFD801B20
:101AF000A84200D895B900202063202084F83D003A
:101B0000002084F83E00206C40F02000206400BFDC
:101B1000002084F83C0000BF0120E3E72068406912
:101B2000C0F380000028D8D00020DBE72DE9F04189
:101B300004460D4617461E46DDF818801CE0701C52
:101B4000D0B1FEF721FDA0EB0800B04200D89EB94D
:101B500000202063202084F83D00002084F83E000F
:101B6000206C40F02000206400BF002084F83C007E
:101B700000BF0120BDE8F081C5F3074001280AD16C
:101B800020684069A9B20840A9B2884201D1012069
:101B90000BE0002009E020688069A9B20840A9B2E2
:101BA000884201D1012000E00020B842C7D00020C7
:101BB000E0E72DE9F04104460D4616461F463DE09C
:101BC00020684069C0F38020E8B12068006840F4D4
:101BD0000070216808606FF480602168486100200F
:101BE0002063202084F83D00002084F83E00206C13
:101BF00040F00400206400BF002084F83C0000BFD7
:101C00000120BDE8F081701CC0B1FEF7BDFCC01B17
:101C1000B04200D896B900202063202084F83D000F
:101C2000002084F83E00206C40F02000206400BFBB
:101C3000002084F83C0000BF0120E2E7C5F3074024
:101C400001280AD120684069A9B20840A9B2884297
:101C500001D101200BE0002009E020688069A9B2D1
:101C60000840A9B2884201D1012000E000200028EC
:101C7000A6D00020C5E770B504460D46164632E0F2
:101C800020684069C0F30010A0B16FF01000216817
:101C9000486100202063202084F83D00002084F863
:101CA0003E00206C206400BF002084F83C0000BF90
:101CB000012070BDFEF768FC801BA84200D895B9D2
:101CC00000202063202084F83D00002084F83E009E
:101CD000206C40F02000206400BF002084F83C000D
:101CE00000BF0120E5E720684069C0F380100028AC
:101CF000C6D00020DDE770B504460D46164620E04C
:101D00002046FFF7A5FD08B1012070BD681CC0B1D9
:101D1000FEF73AFC801BA84200D895B9002020634A
:101D2000202084F83D00002084F83E00206C40F024
:101D30002000206400BF002084F83C0000BF012088
:101D4000E3E720684069C0F3C0100028D8D0002025
:101D5000DBE7000000B585B0002001900290039001
:101D6000049000BF1F48806940F080001D498861D1
:101D70000846806900F08000009000BF00BF00BFEF
:101D80000846806940F0040088610846806900F0D8
:101D90000400009000BF00BF00BF0846806940F00B
:101DA000080088610846806900F00800009000BFC4
:101DB00000BF002289150C48FEF7E0FB4FF480704D
:101DC000019001200290002003900220049001A9BC
:101DD0000548FEF729FA012211020348FEF7CEFB5F
:101DE00005B000BD00100240001C014010B50B48BA
:101DF0000B4908600B484860002109488160C160B8
:101E00004FF480410161002141618161C161016242
:101E1000FEF7C4FB08B1FEF7D7F910BD005400402F
:101E200058000020A086010010B50B480B4908603F
:101E30004FF4E1304860002108488160C1600161D1
:101E40000C21416100218161C161FFF74DFC08B1A6
:101E5000FEF7BAF910BD000000380140AC000020C8
:101E600010B50B480B4908604FF4E1304860002181
:101E700008488160C16001610C21416100218161DC
:101E8000C161FFF731FC08B1FEF79EF910BD0000FB
:101E900000440040EC00002000BFFEE770477047A0
:101EA00008B508490968C9084FF47A72B1FBF2F124
:101EB0004143009100BF00BF00994A1E00920029D3
:101EC000F9D108BD2C000020704710B5FEF7C8FFFF
:101ED00010BD00B58FB0282105A8FEF74CF91421DC
:101EE0006846FEF748F9012005900004069000209E
:101EF00007900120099002200C90C1030D914FF42E
:101F0000E0110E9105A8FFF7A3F908B1FEF75CF9FF
:101F10000F20009002200190002002904FF480607A
:101F200003900020049002216846FFF75BF808B197
:101F3000FEF74AF90FB000BD7047000070B50446C7
:101F40002168096921F44051E26811432268116156
:101F50002269A1681143626941EA02052168C968E2
:101F600041F20C62914329432268D160216849699A
:101F700021F44071A2691143226851612D4A216800
:101F8000914202D1FFF70AF901E0FFF7F7F800EB01
:101F9000C00101EB001162689200B1FBF2F100EBAD
:101FA000C00202EB001263689B00B2FBF3F26423F1
:101FB000B2FBF3F202EBC20303EB0212A1EB8201CC
:101FC000322202EB01116422B1FBF2F101F0F001C7
:101FD00000EBC00202EB001263689B00B2FBF3F25D
:101FE0006423B2FBF3F201EB021200EBC00101EB40
:101FF000001163689B00B1FBF3F100EBC00303EB3E
:1020000000136668B600B3FBF6F36426B3FBF6F381
:1020100003EBC30606EB0313A1EB8301322303EBAF
:1020200001116423B1FBF3F101F00F0111442268A7
:10203000916070BD0038014000BFFEE70FB4054B52
:1020400010B503A9044A029800F033F810BC5DF8FB
:1020500014FB0000892100080000002002480068ED
:10206000C0F30220704700000CED00E010B500281E
:1020700004DB0A07130E054A135406E00A07140E80
:10208000034A00F00F031B1FD45410BD00E400E00E
:1020900018ED00E002E008C8121F08C1002AFAD1BA
:1020A00070477047002001E001C1121F002AFBD1D8
:1020B00070472DE9F84F9946924688460546002715
:1020C00006E025280AD051464A4690476D1C7F1CE1
:1020D00028780028F5D13846BDE8F88F002315F898
:1020E000011F18462E2915D115F8011F04232A298E
:1020F0000DD06FF02F022978A1F13004092C09D8F6
:1021000000EB800002EB400008446D1CF3E758F838
:10211000040B6D1C2A78002ADDD0632A07D0732AAD
:102120000FD0104651464A4690477F1C2AE018F8C7
:10213000042B8DF8002000218DF801106E4601213E
:1021400003E058F8046B4FF0FF315A074FF00004DA
:1021500001D409E0641C84420BDA8C42FADB325D64
:10216000002AF7D105E0641C8C42FCDB305D0028BE
:10217000F9D1274404E016F8010B51464A4690472E
:10218000641EF8D26D1CA3E7074A126802F0807241
:1021900042B100BF4FF060421268002AFAD04FF0FF
:1021A0006043187070470000FCED00E00EB53E483B
:1021B000FDF7ECFF40B23D49087000203C49088023
:1021C000FEF75AFEFFF785FEFFF7C4FDFFF70EFE90
:1021D000FFF72AFEFFF744FE36A0FFF72FFF37E098
:1021E0004FF47A72314890F9000080B22E49304B9A
:1021F0001B8819440823CDE9010200911A46A02149
:102200003448FEF741FD012801D1FDF7DDFF00BF95
:102210003048FEF7BFF92028FAD100BF4FF496737B
:102220000A22A0212B48FEF7A1FA0328F6D000BF0E
:102230002848FEF7AFF92028FAD11C480078083862
:1022400040B21A4908701A480088083018490880B6
:10225000164890F900000028C2DC01E0FDF7B4FF49
:102260001148FDF793FF84B24FF47A701A4908239E
:102270001A46CDE900140290A0211648FEF752FB41
:102280000028EBD100BF1348FEF784F92028FAD1CB
:102290001148FDF77BFF114908700F4910A0FFF7A7
:1022A000CDFE00BFFEE7000008000020180000205F
:1022B0001A0000207468652050726F6772616D208B
:1022C000697320646562756767696E6720210D0A0E
:1022D0000000000058000020300000201C000020FA
:1022E000627566666572203D202573200D0A000028
:1022F00000000000000000000102030406070809B6
:102300000000000001020304282300080000002050
:1023100030000000942000085823000830000020FE
:1023200000050000A42000080000000000000000DC
:102330006162636465666768696A6B6C6D6E6F0085
:10234000000000000000000000000000100000007D
:08235000010000000024F4006C
:0400000508000131BD
:00000001FF
